:020000041008E2
:10000000000008085D6908105D6C0810716A08102E
:10001000616C0810656C0810696C08100000000025
:10002000000000000000000000000000156B081038
:100030006D6C081000000000716C0810756C0810E1
:100040004B6208107162081097620810BD620810B8
:10005000E3620810096308102F6308105563081045
:10006000796C08107D6C0810816C0810856C081084
:10007000896C08108D6C0810916C0810956C081034
:1000800080B501000222DFF8C8050260C9B2022073
:1000900000F00EFF0221DFF8C805016001BD2DE967
:1000A000F047060015001F00DFF8A8853200B8F8F9
:1000B000000092B2824201D2012000E000200C0038
:1000C000DFF894A5AF225146C0B201F0D3FADFF8B1
:1000D0008C952100B9F8000089B2814201D201203B
:1000E00000E00020B0225146C0B201F0C3FA28005F
:1000F000B8F8001080B2884201D2012000E0002050
:10010000B1225146C0B201F0B5FA3800B9F800107A
:1001100080B2884201D2012000E00020B222514684
:10012000C0B201F0A7FADFF83C0590F900100029F1
:10013000012903D9891E01292FD95CE02A20FFF764
:100140009FFF0021022000F0B3FEB61C3100C9B2AF
:10015000022000F0ADFE0021022000F0A9FEAD1C3F
:100160002900C9B2022000F0A3FE2B20FFF788FF70
:100170000021022000F09CFE641C2100C9B2022074
:1001800000F096FE0021022000F092FE7F1C390054
:10019000C9B2022000F08CFE2DE02A20FFF770FF8C
:1001A0000021022000F084FE761C3100C9B202203A
:1001B00000F07EFE0021022000F07AFE6D1C290076
:1001C000C9B2022000F074FE2B20FFF759FF002176
:1001D000022000F06DFEA41C2100C9B2022000F034
:1001E00067FE0021022000F063FEBF1C3900C9B287
:1001F000022000F05DFE2C20FFF742FFBDE8F087F3
:1002000000B585B0684601F053FA0120ADF8000052
:10021000DFF840040088ADF80200DFF840040088F1
:10022000ADF80400DFF8480490F90000002803D07E
:1002300002280FD007D30DE006208DF80600082015
:100240008DF8070006E008208DF8060010208DF8D4
:100250000700FFE70FF24D3003900FF211000490FA
:10026000684601F035FA05B000BD000070B5D0B0A9
:10027000002000200821DFF8F0030160DFF8D443FC
:10028000DFF8D8532888431E9BB22088421E92B2C2
:1002900000210020FFF703FF002008E0DFF8CC1367
:1002A0000B886A46010089B222F81130401C020016
:1002B000218892B28A42F1D3002605E0228869465D
:1002C000022000F0B5FE761C3100288889B28142F8
:1002D000F4D30821DFF89C03016050B070BDDFF853
:1002E0008413087091F900100029012903D9891E8F
:1002F000012909D910E08021DFF858030180A021ED
:10030000DFF85803018007E0A021DFF848030180EF
:100310008021DFF8480301807047DFF85C231080FC
:10032000DFF8480301807047F8B504000F0015009E
:100330002000DFF82013098880B2884201D2012012
:1003400000E00020DFF8106340F273123100C0B209
:1003500001F090F93800DFF80413098880B2884270
:1003600001D2012000E000204FF4BA723100C0B287
:1003700001F080F90821DFF8F00201603B009BB238
:10038000220092B2390089B2200080B2FFF787FEC6
:10039000290089B2022000F0F2FD0821DFF8D40222
:1003A0000160F1BD0000F8B5D8B005000E001400E2
:1003B0002800DFF8A012098880B2884201D201200B
:1003C00000E00020DFF8907240F2CB123900C0B29A
:1003D00001F050F93000DFF88412098880B28842B9
:1003E00001D2012000E000204FF4E6723900C0B2D3
:1003F00001F040F9002000200821DFF86C020160C4
:10040000DFF86C0290F90000002804D0022800F008
:10041000C18047D3BEE0F31D9BB26A1D92B231008A
:1004200089B2280080B2FFF73AFE002000E0401CAD
:100430000100C9B206292FDA0621DFF84022230085
:100440005BB213FB01F313440200D2B21A4412F858
:10045000C02C00230BE040AD1E00F6B24E4356FA0E
:1004600080F6DFF808723F8825F8167010E01D004E
:10047000EDB2082DDBDAD507EDD540AD1E00F6B2A2
:100480004E4356FA80F6DFF8F0713F8825F8167073
:10049000D2B252085B1CEAE7302240A9022000F0E9
:1004A000C7FD77E016F10F039BB2EA1D92B231004F
:1004B00089B2280080B2FFF7F2FD002000E0401C66
:1004C0000100C9B208295FDADFF8B421210049B27E
:1004D000090102EB01030100C9B21944B1F5007131
:1004E000097823005BB21B0113440200D2B21A4404
:1004F000B2F5FC72127800231BE06D461E00F6B2C6
:10050000F60056FA80F6DFF864713F8825F8167019
:100510000CE0CD07F1D56D461E00F6B2F60056FA96
:1005200080F6DFF854713F8825F81670C9B2490883
:100530005B1C1D00EDB2082DEBDB00210DE06B46CE
:100540000D00EDB2ED0055FA80F503EB4503DFF841
:100550001C512D88A3F8805012E00B00DBB2082B51
:10056000ADDAD307EBD56B460D00EDB2ED0055FAD1
:1005700080F503EB4503DFF800512D88A3F8805088
:10058000D2B25208491CE8E780226946022000F0F6
:100590004FFDFFE70821DFF8DC00016059B0F0BD36
:1005A00000000000F8B504000E0015002000DFF880
:1005B000A410098880B2884201D2012000E0002006
:1005C000DFF8947040F222223900C0B201F052F8F4
:1005D0003000DFF88810098880B2884201D20120FB
:1005E00000E0002040F223223900C0B201F042F8BE
:1005F00000270EE00CE0380080B22A56310089B2A4
:10060000380080B2C00010FA84F080B2FFF7CBFE51
:100610007F1C380080B22856002818D0DFF864000C
:1006200090F90000002803D00228E3D0E3D3EFE7DD
:10063000380080B22A56310089B23B009BB20620B6
:10064000434313FA84F080B2FFF7ADFEE0E7F1BD5B
:1006500004063140B064020890680810B2640208D1
:10066000080631400180040884063140B66402085F
:10067000B964020888063140B464020804600810B6
:10068000B4540810B96402081FB504200290042075
:100690000190022000900223D74A0021022000F09E
:1006A00039FD032300220121612001F0C4F8032356
:1006B00000220121602001F0BEF803230122012164
:1006C0006B2001F0B8F8032301220121682001F01A
:1006D000B2F8CA4C94F90000FFF701FEC448018843
:1006E000C4480088FFF719FE0121C54801600A20AF
:1006F00001F071F90121C3480160782001F06BF924
:100700000821BA4801601120FFF7BAFC782001F0F7
:1007100062F9B120FFF7B4FC0121022000F0C8FB10
:100720002C21022000F0C4FB2D21022000F0C0FB90
:10073000B220FFF7A5FC0121022000F0B9FB2C211B
:10074000022000F0B5FB2D21022000F0B1FBB32008
:10075000FFF796FC0121022000F0AAFB2C210220C9
:1007600000F0A6FB2D21022000F0A2FB01210220B7
:1007700000F09EFB2C21022000F09AFB2D2102208C
:1007800000F096FBB420FFF77BFC0721022000F06D
:100790008FFBC020FFF774FCA221022000F088FB31
:1007A0000221022000F084FB8421022000F080FB63
:1007B000C120FFF765FCC521022000F079FBC220B3
:1007C000FFF75EFC0A21022000F072FB00210220EC
:1007D00000F06EFBC320FFF753FC8A21022000F0DB
:1007E00067FB2A21022000F063FBC420FFF748FCCE
:1007F0008A21022000F05CFBEE21022000F058FB71
:10080000C520FFF73DFC0E21022000F051FB3620F1
:10081000FFF736FC94F90000002805D002280DD01F
:1008200007D303280FD012E0C021022000F040FBC4
:100830000DE00021022000F03BFB08E0A021022097
:1008400000F036FB03E06021022000F031FBE020E5
:10085000FFF716FC0F21022000F02AFB1A210220CC
:1008600000F026FB0F21022000F022FB18210220BD
:1008700000F01EFB2F21022000F01AFB282102208D
:1008800000F016FB2021022000F012FB22210220A2
:1008900000F00EFB1F21022000F00AFB1B210220AA
:1008A00000F006FB2321022000F002FB372102208A
:1008B00000F0FEFA0021022000F0FAFA07210220DF
:1008C00000F0F6FA0221022000F0F2FA10210220D4
:1008D00000F0EEFAE120FFF7D3FB0F21022000F039
:1008E000E7FA1B21022000F0E3FA0F21022000F0BA
:1008F000DFFA1721022000F0DBFA3321022000F09A
:10090000D7FA2C21022000F0D3FA2921022000F08E
:10091000CFFA2E21022000F0CBFA3021022000F085
:10092000C7FA3021022000F0C3FA3921022000F07A
:10093000BFFA3F21022000F0BBFA0021022000F0A4
:10094000B7FA0721022000F0B3FA0321022000F0D9
:10095000AFFA1021022000F0ABFA2A20FFF790FB3B
:100960000021022000F0A4FA0221022000F0A0FAE7
:100970000021022000F09CFA8221022000F098FA67
:100980002B20FFF77DFB0021022000F091FA0321CC
:10099000022000F08DFA0021022000F089FA832164
:1009A000022000F085FAF020FFF76AFB0121022007
:1009B00000F07EFAF620FFF763FB0021022000F032
:1009C00077FA3A20FFF75CFB0521022000F070FA6D
:1009D0002920FFF755FB082103480160FFF746FC7B
:1009E000FFF70EFC1FBD0000880631408406314031
:1009F000B6640208B464020880C3C9010180040817
:100A00000406314008063140D0F80803C005C00D87
:100A1000704710F54172116851F48031116010F582
:100A20004172116831F480311160D0F804037047CD
:100A3000C0F840127047D0F80802C005C00D7047DA
:100A4000D0F80802C0F3C030704738B50500280060
:100A5000FFF7F1FF04002800FFF7F2FF0419002C54
:100A600001D1012000E00020C0B232BD0068C0F317
:100A70008130002801D1802000E0402070470168CB
:100A800051F000410160704710F12002106861F3DD
:100A90009B601060704780B5FFF7B6FF02BD80B560
:100AA000FFF7B7FF01BD40B2002804D0012808D0ED
:100AB00003280BD00FE0202901D3012000E0002003
:100AC0007047102901D30120FAE7F8E7082901D37C
:100AD0000120F5E7F3E70120F2E7F8B507000C0085
:100AE00015001E002100380040B2FFF7DCFF01288E
:100AF00001D1012017E0380040B2022816D1B5F527
:100B0000803F11D2202E0FD2DFF8E42502EB8400C3
:100B1000016865F31721016002EB8401086866F340
:100B2000C70008600020F2BD0120FCE77FB2032F60
:100B300017D1B5F1807F12D2202E10D2DFF8B42564
:100B400002EB8400016801F0FF0151EA0521016018
:100B500002EB8401086866F3C7000860E2E7012041
:100B6000E1E70120DFE770B506000C001500290061
:100B7000200040B2FFF797FF012801D101200EE0CD
:100B8000DFF87405310049B250F8211064B264F303
:100B9000092165F3070176B240F82610002070BDE8
:100BA00038B504000D002900200040B2FFF77BFF9C
:100BB000012801D1012010E0DFF84005016851F063
:100BC000004151F0407151F47F0164B264F3092196
:100BD00065F3070101600068002032BD0100C020FC
:100BE00049B2002905D0022907D004D3032906D031
:100BF00006E0322004E03A2002E06A2000E07220A1
:100C0000C0B270470100C02049B2002905D00229B6
:100C100007D004D3032906D006E0312004E03920B0
:100C200002E0692000E07120C0B270470100C020DE
:100C300049B2002906D0022908D005D3042909D0D9
:100C400006D307E0302005E0382003E0682001E00B
:100C50007020FFE7C0B270470100C02049B20029F0
:100C600006D0022908D005D3042909D006D307E00D
:100C7000332005E0582003E06B2001E0BF20FFE7B0
:100C8000C0B270470100002049B2002905D00229F6
:100C900007D004D3032906D006E0132004E0132074
:100CA00002E0132000E0132040B270470100002052
:100CB00049B2002905D0022907D004D3032906D060
:100CC00006E0132004E0132002E0132000E01320CC
:100CD00040B270470100002049B2002906D0022925
:100CE00008D005D3042909D006D307E0132005E076
:100CF000132003E0132001E01320FFE740B2704708
:100D00000100002049B2002906D0022908D005D3ED
:100D1000042909D006D307E0132005E0002003E0F2
:100D2000132001E00020FFE740B27047010049B204
:100D3000002905D0022907D004D3032906D006E0F4
:100D4000222004E0232002E0212000E0202040B205
:100D5000704730B4DFF8A82303005BB2D45C0B000B
:100D6000DBB29C4200F0A2800B00DBB2082B02D069
:100D7000102B47D098E0DFF88C33040064B253F8AE
:100D80002440246834F4404405006DB253F82550E3
:100D90002C60040064B253F82440D4F80042640983
:100DA000640105006DB253F82550C5F800420400F7
:100DB00064B253F82440D4F8004254F0070405000C
:100DC0006DB253F82550C5F80042040064B253F8E0
:100DD0002440D4F800436409640105006DB253F85F
:100DE0002550C5F80043040064B253F82440D4F8F9
:100DF000004354F0070405006DB253F82530C3F8E2
:100E0000004351E0DFF8FC32040064B253F82440A0
:100E1000246834F4404405006DB253F825502C602A
:100E2000040064B253F82440246854F4804405005C
:100E30006DB253F825502C60040064B253F824407E
:100E4000D4F800426409640105006DB253F82550DE
:100E5000C5F80042040064B253F82440D4F80042BC
:100E600054F00F0405006DB253F82550C5F8004248
:100E7000040064B253F82440D4F8004364096401C8
:100E800005006DB253F82550C5F80043040064B264
:100E900053F82440D4F8004354F00F0405006DB219
:100EA00053F82530C3F8004340B2115430BC7047AA
:100EB000F8B504000E000821200040B2FFF749FFFA
:100EC000DFF84452200040B22856042811D02000F8
:100ED00040B22956C9B2C9108022DFF8300202FBA5
:100EE00001010120220052B2AA5C12F007029040D8
:100EF0000860DFF81072200040B257F82000FFF7BA
:100F0000CEFDF6B23100200040B257F82000FFF7C6
:100F10008FFD200040B257F82000FFF7A7FD060024
:100F2000200040B257F82000FFF785FD8642F0D040
:100F3000200040B257F82000FFF787FD0028F7D0C7
:100F4000200040B257F82000FFF7A5FD0028F7D099
:100F5000200040B22856042810D0200040B2295664
:100F6000C9B2C9108022DFF8A80102FB01010120EB
:100F700064B22A5D12F0070290400860F1BDF8B536
:100F800004000E001021200040B2FFF7E2FEDFF85F
:100F90007851200040B22856042811D0200040B2D9
:100FA0002956C9B2C9108022DFF8600102FB010195
:100FB0000120220052B2AA5C12F0070290400860A1
:100FC000DFF84071B6B23100200040B257F820007F
:100FD000FFF72EFD200040B257F82000FFF746FD36
:100FE0000600200040B257F82000FFF724FD86429B
:100FF000F0D0200040B257F82000FFF726FD00286F
:10100000F7D0200040B22856042810D0200040B26B
:101010002956C9B2C9108022DFF8F40002FB010191
:10102000012064B22A5D12F0070290400860F1BD11
:101030002DE9F84305000F0014001021280040B2EC
:10104000FFF787FEDFF8C060280040B23056042862
:1010500011D0280040B23156C9B2C9108022DFF841
:10106000AC0002FB010101202A0052B2B25C12F076
:10107000070290400860DFF88C803988280040B271
:1010800058F82000FFF7D4FCBF1C280040B258F8E5
:101090002000FFF7EBFC8146280040B258F8200002
:1010A000FFF7C9FC8145F0D0641E002CE3D1280075
:1010B00040B258F82000FFF7C8FC0028F7D02800FD
:1010C00040B23056042810D0280040B23156C9B280
:1010D000C9108022DFF8380002FB010101206DB247
:1010E000725D12F0070290400860BDE8F1830000D5
:1010F00000180040001C0040000C004000040040AC
:10110000E47F04088C640208E07F04080400314096
:10111000080031402DE9F84F9CB006000C001D007E
:10112000920000238F48012100F0F0FC07003421D9
:101130000022E846404600F001FE3C2100220DF16D
:101140003408404600F0FAFD31002800C9B2C0B2B0
:10115000814201D1012000E000209DF99890DFF844
:10116000088240F2AB324146C0B200F083FA290057
:101170004846C9B2C0B2814201D1012000E000203E
:101180009DF99CA04FF46B724146C0B200F072FA18
:1011900006200190484640B2FFF788FD8DF8080010
:1011A000484640B2FFF72EFD83465FF008084846E8
:1011B00040B2FFF727FDDFF8B4916A469BFBF8F1D8
:1011C00008FB11BB5946C0B2C010802358434844A5
:1011D00000F0B1FE06200190280040B2FFF752FD5A
:1011E0008DF80800280040B2FFF7F8FC83465FF056
:1011F0000808280040B2FFF7F1FC6A469BFBF8F1B3
:1012000008FB11BB5946C0B2C01080235843484464
:1012100000F091FE504640B204281ED008200190F4
:10122000504640B2FFF756FD8DF80800504640B2D8
:10123000FFF7FCFC80460825504640B2FFF7F6FC5D
:101240006A4698FBF5F105FB11884146C0B2C01013
:1012500080235843484400F06EFE9DF9A0502800BA
:1012600040B204281FD006200190280040B2FFF7AA
:1012700047FD8DF80800280040B2FFF7EDFC8246DC
:101280005FF00808280040B2FFF7E6FC6A469AFBC8
:10129000F8F108FB11AA5146C0B2C0108023584390
:1012A000484400F048FE300040B2FFF73FFD3200F6
:1012B000D2B2521C032140B2FFF755FC17F01F03B6
:1012C000C7F357123100C9B2491C0320FFF705FCD0
:1012D0003100C9B2491C0320FFF762FC64B2002C44
:1012E00005D0022C09D005D3032C09D00AE0002038
:1012F0000F9007E001200F9004E002200F9001E022
:1013000003200F9001200D9000200E9004201090DB
:10131000082011900820129001208DF84C00012027
:101320008DF84F000E4C00220DA9300040B254F849
:10133000200000F041FE0021300040B254F82000AF
:10134000FFF7A2FB300040B254F82000FFF797FBF4
:10135000024876B285551DB0BDE8F08FE07F0408E5
:101360008C64020800002D3118690810000031401B
:1013700082B000200190002000900020019009E040
:101380000098401C00900098B0F5005FF8D30198D9
:10139000401C01900198B0F5805F02D200200090BF
:1013A000F1E702B0704780B50100002000F026FF91
:1013B00001BD2DE9F043ADF5137D07008846160009
:1013C0001C000020ADF802000020ADF80000002055
:1013D00002900020ADF804000020ADF80600404661
:1013E00000F020FF0290DFF82C532888002801D05D
:1013F00028698047DFF820030078002800F0368154
:101400002888002800F01481BDF90600411CADF8C1
:1014100006103A00010089B20020EB689847474661
:10142000404600F0FFFE02906988A87991FBF0F039
:10143000ADF804003800471C90F900000028F9D1ED
:101440000020ADF8000010E07F1E97F900002F2863
:1014500003D097F900005C2804D1BDF80000401CBF
:10146000ADF800000298401E0290BDF8000002286E
:1014700002DA02980028E7D50298002806D47A1CE0
:10148000DFF8981253A800F0EDFE0EE0BDF8000062
:10149000002805D13A00A24953A800F0E3FE04E079
:1014A0003A009E4953A800F0DDFE0020ADF802008E
:1014B00042E0BDF80010BDF80070BDF8022053AB4B
:1014C00092B2BDF90400424312FA87F01A5C43A8B5
:1014D00089B24254BDF80000401CADF80000BDF8D0
:1014E000001089B2BDF9040081420EDA53A800F061
:1014F00099FEBDF80030BDF8022092B2BDF904108B
:101500004A4312FA83F18842D3D2002243A9BDF89C
:1015100000000A54BDF90600411CADF8061043AAAC
:10152000E97911FB00F189B20020EB689847BDF81A
:101530000200401CADF80200BDF8027053A800F094
:1015400071FEBDF90410B0FBF1F0401CBFB2874240
:1015500003D20020ADF80000C1E73200714953A862
:1015600000F080FEBDF90600411CADF8061053AA3C
:10157000E97911FB00F189B20020EB689847002C53
:1015800074D00020ADF8020041E0BDF80010BDF8B5
:101590000020BDF802309BB2BDF90400434313FAAA
:1015A00082F0205C43AA89B25054BDF80000401C70
:1015B000ADF80000BDF8000080B2BDF9041088420B
:1015C0000EDA200000F02EFEBDF80030BDF802203B
:1015D00092B2BDF904104A4312FA83F18842D4D280
:1015E000002043A9BDF800208854BDF90600411C25
:1015F000ADF8061043AAE97911FB00F189B2002089
:10160000EB689847BDF80200401CADF80200BDF839
:101610000260200000F006FEBDF90410B0FBF1F0FE
:10162000401CB6B2864221D20020ADF80000C1E7CE
:101630004FF4807100220DF10C09484600F07EFB4A
:101640003800A9688847002C07D000943300424630
:10165000354903A800F006FE05E033004246334951
:1016600003A800F0FFFD03A8A96888470DF5137DC6
:10167000BDE8F08338B50C001500C0B2002803D1D6
:101680002B480078002800D131BD2A49087800286D
:1016900000D0FEE70878401C087000F04DFE0023E3
:1016A0002A0021002448FFF784FEFFF761FEF6E7D9
:1016B000002101804FF6FF7141808180FF218171FF
:1016C000C171002181600021C1600021016170476A
:1016D000104902880A8042884A8082888A808279FA
:1016E0008A71C279CA7182688A60C268CA600069F8
:1016F0000861012108480170704700B585B068464F
:10170000FFF7D6FF0D4802906846FFF7E1FF05B0EE
:1017100000BD00007C7F0408FE7F0408CC6B08102D
:10172000AC6B0810D86B0810F86A0810646B0810CE
:10173000B8640208FF7F0408BC6B0810A7130810E8
:101740000069C84010F001007047012212FA01F14F
:1017500081607047012212FA01F14160704710B4B4
:101760008900446C0F238B409C4312F00F0212FA45
:1017700001F12143416410BC704780B5C9B2002912
:101780000FD00100C9B2082391FBF3F203FB121141
:101790004D4BC0B2C010802250431844FFF7D5FF14
:1017A0000EE00100C9B2082391FBF3F203FB121112
:1017B000454BC0B2C010802250431844FFF7CAFF07
:1017C00001BD80B50100C9B2082391FBF3F203FB10
:1017D00012113D4BC0B2C010802250431844FFF795
:1017E000AFFFC0B202BD10B549B200290BD152B251
:1017F000002A02D0022A02D003E00F220BE00B22C3
:1018000009E00A2207E052B2042A01D10C2200E0CA
:101810000E2212F007020100C9B2082491FBF4F372
:1018200004FB1311284CC0B2C0108023584320443D
:10183000FFF795FF10BD2DE9F8418DB005008846F2
:1018400014001E00342100226F46380000F076FAA2
:101850004FFA88F8B8F1000F0ED176B2002E02D000
:10186000022E03D005E00F2001900DE0082001902A
:101870000AE00820019007E076B2042E02D10F2082
:10188000019001E00E2001902800C0B2C02811D0C4
:101890002900C9B208236A4691FBF3F003FB10113B
:1018A000094E2B00DBB2DB108020434306EB030024
:1018B00000F041FB2100C9B22800C0B2FFF75DFF74
:1018C0000EB0BDE8F08100000000314040B20028B9
:1018D00004D0012808D003280BD00FE0202901D321
:1018E000012000E000207047102901D30120FAE711
:1018F000F8E7082901D30120F5E7F3E70120F2E733
:1019000070B504000D005600761C2900200040B27E
:10191000FFF7DCFF012801D101200EE0200040B2DA
:1019200000280DD1B6F5807F08D2704800EB850104
:10193000086866F30F200860002070BD0120FCE7F6
:1019400064B2012C0CD1B6F5803F07D2684800EB99
:101950008501086866F317200860EDE70120ECE7D1
:101960000120EAE770B506000C00150029002000F0
:1019700040B2FFF7ABFF012801D101200DE05D4827
:10198000310049B250F8211064B264F3092165F3C3
:10199000070176B240F82610002070BD38B504006B
:1019A0000D002900200040B2FFF790FF012801D16F
:1019B00001200FE05048016851F0004151F04071A2
:1019C00051F47F0164B264F3092165F307010160FA
:1019D0000068002032BDF8B506004FF4FA504643C7
:1019E000464D474C00212A788020424304EB0200F8
:1019F00000F093FD1AE029788020414304EB0100B8
:101A000000F08DFDB842F6D33E4FBE1929788020F4
:101A1000414304EB010000F082FD3F1839002A78B1
:101A20008020424304EB020000F077FD4CF2513776
:101A3000BE42E0D229788020414304EB010000F04F
:101A40006EFD8642F6D2F1BD38B594B05021002229
:101A50006C46200000F072F9002201212A4890F91A
:101A60000000FFF77FFF092200210120FFF748FF58
:101A700000210120FFF792FF5FF0FF30009000206F
:101A80008DF8040000208DF8050000208DF8060078
:101A900000208DF8080003208DF8440001201290EA
:101AA00001208DF80700154D154C69462A788020D5
:101AB000424304EB020000F067FC29788020414398
:101AC00004EB010000F024FD00212A78802042432D
:101AD00004EB020000F021FD29788020414304EB53
:101AE000010000F02DFD15B030BD000000100040D9
:101AF00000140040000C004000040040BB640208D9
:101B000000003940B03CFFFFBA640208BBBBE1B142
:101B1000B2F5803F80F07E80022A1ED98C46B1FB50
:101B2000F2F102FB11C31B0443EA1043B3FBF2FCC6
:101B300002FB1C3380B240EA0343B3FBF2F002FB2A
:101B4000103240EA0C4000237047022A05D984462F
:101B5000B0FBF2F002FB10C270474AB105D100F0B1
:101B6000010249085FEA30007047002200237047F5
:101B700000F0EEBC0B0002000021002070479042F4
:101B800071EB030CF6D3B3F5803F2FD2F0B5B3FA67
:101B900083F7B1FA81F4A7F10F0E3D1B5340CEF14C
:101BA000200602FA0EF2F3415340B5F10F0746D872
:101BB0000F3C2C444140C4F12006A040F14141407B
:101BC000B1FBF3F603FB1611A2FB0645001BA9416E
:101BD00002D2761E8018594180EA010221FA0EF3E2
:101BE00062FA0EF200215A403046F0BD30B4B1FB2B
:101BF000F3FC03FB1C11A2FB0C45001BA94103D203
:101C0000ACF1010C8018594130BC02460B466046CD
:101C100000217047B2F1807F65D3F0B5B2FA82F748
:101C2000B1FA81F4C7F10F063D1B22FA06F307F162
:101C3000110EF24120355A40B5F10F07B8D9414095
:101C4000C4F12006A040F1414140B1FBF3FC03FB8D
:101C50001C11A2FB0C45001BA94103D2BCF1010CD5
:101C6000801859410F2F12D30F3FC90341EA504149
:101C7000B1FBF3F603FB1611A2FB0645D4EBC03013
:101C8000A94102D2761E8018594146EACC3C07B3DE
:101C90004140C7F12006B840F1414140B1FBF3F6A5
:101CA00003FB1611A2FB0645001BA94102D2761EBA
:101CB0008018594180EA010221FA0EF3C7F120048D
:101CC00062FA0EF20CFA07F05A402CFA04F1304393
:101CD000F0BD80EA010221FA0EF3002162FA0EF251
:101CE00060465A40F0BD8C46B1FBF2F102FB11C3D5
:101CF0001B0243EA1063B3FBF2FC02FB1C331B0222
:101D00004CEA002043EA1063B3FBF2FC02FB1C33F5
:101D10001B024CEA002043EA1063B3FBF2FC02FB17
:101D20001C331B024CEA002043EA1063B3FBF2FCB5
:101D300002FB1C324CEA00200023704762F30F22A2
:101D400062F31F42401810F0030308D0C91A1FD3D2
:101D5000DB0748BF00F8012D28BF20F8022D130033
:101D600030B414461546103928BF20E93C00FAD893
:101D7000490728BF20E90C0048BF40F8042D89001E
:101D800028BF20F8022D48BF00F8012D30BC704755
:101D9000C91818BF00F8012DCB0728BF00F8012D86
:101DA0007047F0B40246106895681318506803EB4A
:101DB0005004C00748BF4D44A3422DD013F8016B17
:101DC00016F0030004BF13F8010BC01C31090F29E2
:101DD00007D113F8011B0F3103E013F8017B05F85D
:101DE000017B401EF9D10029E6D013F8010BC6F3A0
:101DF0008107032F08BF13F8017B00EB0720404247
:101E000028440026B71E8F421EBF10F8017B05F83C
:101E1000017B761CF6D1CFE7F0BC02F10C007047D5
:101E200030B4624B1818C009614B13EB001304293E
:101E30000DD21D681F24C8008440A54352B212F081
:101E40001F02C90012FA01F1294319600CE00D1FAD
:101E50005C681F21E80081408C4352B212F01F02DF
:101E6000ED00AA4022435A6030BC7047002A04D1DA
:101E7000012212FA01F1416003E0012212FA01F19C
:101E80008160704710B48900446C0F238B409C43E1
:101E900012F00F0212FA01F12143416410BC7047A5
:101EA00010B4846C01238B409C4312F0010212FA9F
:101EB00001F12143816410BC704710B4C46C01234C
:101EC0008B409C4312F0010212FA01F12143C164DC
:101ED00010BC704710B449001031C46C03238B4010
:101EE0009C4312F0030212FA01F12143C16410BCB9
:101EF00070474269012212FA01F14161406970475D
:101F000010B4846901238B409C4312F0010212FA41
:101F100001F12143816110BC704710B44900046C89
:101F200003238B409C4312F0030212FA01F1214378
:101F3000016410BC7047F8B504000F0015000026BE
:101F4000002C2FD0002D2DD02A6839002000FFF75B
:101F50008DFF95F9082039002000FFF761FF6A69BD
:101F600039002000FFF79CFFAA6939002000FFF725
:101F7000A4FFEA6939002000FFF7ACFF6A68390066
:101F80002000FFF77FFFEA6839002000FFF7C5FF58
:101F900039002000FFF7ADFF2A6939002000FFF764
:101FA000AFFF00E0034E3000F2BD00000000CFBFE5
:101FB0000000304001005A002DE9F041DFF8C03147
:101FC0001C00DFF8C051D5F800C0DFF8BC512D6807
:101FD000DFF8B8613668DFF8B8713F685FF0000E6F
:101FE0005FF0000E002800F0C880002900F0C580D6
:101FF0004C68002C01D18C6805E04C68022C01D1A2
:10200000002400E00224D1F810E0D1F81480C64585
:1020100002D3D1F810E001E0D1F814E0BEF1090FCD
:1020200008D23CF4404C91F82130002B12D05CF4E3
:10203000807C11E0BEF1110F03D2012363F38F3CCA
:10204000F1E7BEF1210F03D2022363F38F3CEAE7ED
:10205000180093E03CF4807CCB685B1E13F00F0308
:1020600063F3030C012363F3196CC0F800C00B7F0A
:10207000002B01D0002300E0012363F300054B682F
:102080001B0963F34105CB7E63F304154B7E63F3B9
:1020900045150B68012B01D1012300E0002363F3F8
:1020A000DF7523005B0863F3820564F3C3054B7F90
:1020B00063F308258B7F63F34925CB7F63F38A2580
:1020C00091F8203063F3CB250B7913F0030363F30E
:1020D000196505620B7E63F308278B7E63F349273E
:1020E0000B695B1E13F01F0363F30407C0F8007352
:1020F00091F8244004F0FF0410F541731D6864F367
:1021000007051D600B7E63F308264B695B1E13F009
:102110001F0363F30406C0F8006291F82C3003F04B
:10212000FF0310F501752C6863F307042C600B6B3B
:10213000C0F8883F8B6AC0F8C83F91F8385010F556
:1021400070631C6865F349241C6091F8393010F500
:1021500074610C6863F3CB240C600021C0F8C81EC6
:10216000002A09D000201060002090610020D0607B
:102170000020D0610748106200242000BDE8F081F3
:102180000140AA00186C08101C6C0810206C081084
:10219000246C0810EFCDAB00C0F840127047D0F8A7
:1021A0000802C005C00D7047D0F80802C0F3C03067
:1021B000704738B505002800FFF7F1FF040028003C
:1021C000FFF7F2FF0419002C01D1012000E00020EC
:1021D000C0B232BD38B50500DFF84440C9B22800AE
:1021E00040B254F82000FFF7D7FF280040B254F85F
:1021F0002000FFF7DEFF0028F7D031BD38B504001E
:102200000D0007E028780100C9B2200040B2FFF7B6
:10221000E1FF6D1C95F900000028F3D131BD0000ED
:102220009C64020800F10103810704D010F8011B2F
:10223000820781B1FAD10268A2F10131914311F014
:10224000803104BF50F8042FF6E709BAB1FA81F1E2
:1022500000EBD100401CC01A704703685A1C026092
:10226000197070470CB430B583B00A4606A90291C4
:10227000044600250194009502AB01A90848784462
:102280001E3000F072F901990D7000284EBF04460F
:102290000198041B204603B030BC5DF80CFB00BF66
:1022A000BBFFFFFF010009B2002908D4012210F092
:1022B0001F018A401B4900B2400941F820207047A5
:1022C000010009B2002908D4012210F01F018A4040
:1022D000154900B2400941F820207047020012B2AF
:1022E000002A04D44A01114900B20A5407E0490106
:1022F0000F4A00B210F00F00104400F8041C7047A1
:10230000002800D162B60B490868401C086070477D
:1023100072B608490868002802D00868401E0860A4
:102320000868704700E100E080E200E000E400E0BF
:1023300018ED00E0D87F040880B5FFF7E9FF00F052
:10234000B5FB01BD80B5C9B200B2FFF7C7FF01BD43
:1023500070B506000C001500300000F0D9FC21001B
:10236000B6F9000000F0EFFC2900C9B2B6F902008E
:10237000FFF7E8FFB6F90200FFF7A2FFB6F9020087
:10238000FFF790FF70BD000010B4012291F94C30AE
:10239000052B03D291F94D30052B01D31000AAE093
:1023A000002800F0A780002900F0A480534A12689A
:1023B00091F9053063F392428B7913F0030363F3D1
:1023C00011420B7A13F0070363F31A62CB7963F3BC
:1023D0009E720B7D63F3000291F8243063F3410297
:1023E00002600B7903F0FF0310F13002146863F30D
:1023F0000704146091F90520012A0DD191F90620F6
:10240000002A02D10022826008E091F90620012A08
:1024100004D10A68826001E001228260CA68026118
:102420000A694261CA6982610A6AC2610A68026213
:10243000334A12680B7E03F0FF0363F3070291F83F
:10244000303003F0FF0363F3174291F8403003F09C
:10245000FF0363F31F6291F8483003F0FF0363F357
:102460000F224264274A126891F8383003F0FF03C4
:1024700063F3070291F8283003F0FF0363F30F22A0
:102480008264214A12688B7D13F0030363F3010217
:1024900091F8253013F0030363F38B2291F82C306D
:1024A00013F0030363F3051291F8343013F00303C0
:1024B00063F3092291F83C3013F0030363F38712AE
:1024C00091F8443013F0030363F38302C2640F4AAC
:1024D000126891F84C3013F0070363F3020291F88D
:1024E0004D3013F0070363F30612426591F915109E
:1024F00081670022100010BC704700002C6C08108F
:10250000306C0810346C0810386C08103C6C0810E3
:10251000016851F000410160704781607047806838
:10252000704710F17801086850F0010008607047AA
:1025300010F17002116851F001011160006F7047D5
:1025400010F14001086850F010000860704700006A
:10255000704770B506461C000846154604D015F8AD
:10256000011BB047641EFAD170BD2DE9FC4683B053
:1025700081468A4616461F4607E0012332465146E9
:102580004846FFF7E6FF8246761C3078E0B1252802
:10259000F3D17178B61C252912D058295AD0632955
:1025A00015D0642918BF692917D06F2952D0702916
:1025B00055D0732959D0752918BF78294AD0E4E736
:1025C0005046C8478246E0E705B0BDE8F086396866
:1025D00051F8040B3960C1B2F2E7386850F8045B77
:1025E0003860002D03D52D215046C847824664210E
:1025F0006F2908BF082205D041F02000782814BFB9
:102600000A2210220B246429284602D1002D48BF3B
:102610004042B0FBF2F302FB1300641E30303A2854
:1026200004DA0DF80400180003D104E04018513812
:10263000F7E7002CEDDC614211F10B0F0DEB040507
:102640005046BFD0C4F10B0415F8011BC847641EE7
:10265000FAD1B7E7386850F8045B3860C8E73868E3
:1026600050F8045B38607821C2E7386850F8045BA2
:1026700038602846FFF7D6FD04005046A2D015F872
:10268000011BC847641EFAD19CE7000040B2002835
:1026900004D0012808D003280BD00FE0202901D353
:1026A000012000E000207047102901D30120FAE743
:1026B000F8E7082901D30120F5E7F3E70120F2E765
:1026C00070B504000D005600761C2900200040B2B1
:1026D000FFF7DCFF012801D101200FE0200040B20C
:1026E00000280ED1B6F5807F09D2DFF8040600EB92
:1026F0008501086866F30F200860002070BD012086
:10270000FCE764B2012C0DD1B6F5803F08D2DFF8AA
:10271000E40500EB8501086866F317200860ECE724
:102720000120EBE70120E9E770B506000C00150079
:102730002900200040B2FFF7A9FF012801D10120A4
:102740000EE0DFF8B405310049B250F8211064B250
:1027500064F3092165F3070176B240F826100020E2
:1027600070BD38B504000D002900200040B2FFF70D
:102770008DFF012801D1012010E0DFF880050168FC
:1027800051F0004151F0407151F47F0164B264F3A3
:10279000092165F3070101600068002032BD10B512
:1027A00040B2002830D0022832D02FD3042833D0B2
:1027B00030D3062834D031D3082835D032D30A2874
:1027C00036D033D30C2837D034D30E2838D035D375
:1027D000102839D036D312283AD037D314283BD01A
:1027E00038D316283CD039D318283DD03AD31A28EC
:1027F0003ED03BD31C283FD03CD31E2840D03DD3F5
:10280000202841D03ED341E0312445E0332443E049
:10281000352441E011243FE010243DE028243BE032
:10282000292439E02A2437E02B2435E0032433E03F
:10283000022431E039242FE001242DE000242BE094
:10284000402429E0412427E0BF2425E0BC2423E0E4
:10285000602421E061241FE0AB241DE0AA241BE0DA
:10286000A92419E0A82417E0692415E06B2413E0DB
:10287000702411E071240FE097240DE096240BE002
:10288000952409E0942407E0932405E06022DFF812
:1028900070140020FEF7EEFE2000C0B210BD10B58F
:1028A00040B200283CD001283CD002283CD003286C
:1028B0003CD004283CD005283CD006283CD0092830
:1028C0003CD00A283CD00B283CD00C283CD00D280A
:1028D0003CD00E283CD00F283CD010283CD01128EA
:1028E0003CD012283CD013283CD014283CD01528CA
:1028F0003CD016283CD017283CD018283CD01928AA
:102900003CD01A283CD01B283CD01C283CD01D2889
:102910003CD01E283CD01F283CD020283CD03DE095
:10292000082441E008243FE008243DE008243BE07F
:10293000082439E0082437E0082435E0082433E08F
:10294000082431E008242FE008242DE008242BE09F
:10295000082429E0082427E0082425E0082423E0AF
:10296000082421E008241FE008241DE008241BE0BF
:10297000082419E0082417E0082415E0082413E0CF
:10298000082411E008240FE008240DE008240BE0DF
:10299000082409E0082407E0082405E09022DFF875
:1029A00060130020FEF766FE200040B210BD80B527
:1029B00040B2002830D0022832D02FD3042833D0A0
:1029C00030D3062834D031D3082835D032D30A2862
:1029D00036D033D30C2837D034D30E2838D035D363
:1029E000102839D036D312283AD037D314283BD008
:1029F00038D316283CD039D318283DD03AD31A28DA
:102A00003ED03BD31C283FD03CD31E2840D03DD3E2
:102A1000202841D03ED341E0002045E0012043E0A2
:102A2000022041E006203FE007203DE009203BE096
:102A30000A2039E00B2037E00C2035E00D2033E090
:102A40000E2031E00F202FE011202DE012202BE08E
:102A5000132029E0142027E0162025E0192023E088
:102A6000242021E025201FE027201DE028201BE056
:102A7000292019E02A2017E02C2015E02D2013E052
:102A8000302011E031200FE032200DE033200BE048
:102A9000342009E0352007E0362005E0C2229849BD
:102AA0000020FEF7E7FD0020C0B202BD00200BE0D1
:102AB0009449802202FB00F28B5823F000438022CD
:102AC00002FB00F28B50401C3F28F1DB704770B5D1
:102AD00005000E0000200020280040B2FFF767FF2D
:102AE000884CC0B2802148432044006A80B206FB73
:102AF00000F642F21070B6FBF0F6280040B2FFF785
:102B000056FF802148432044B6B24661280040B2B7
:102B1000FFF74DFF0200D2B280214A4304EB0201CD
:102B20000A6C52F00102C0B2802148432044026482
:102B300070BD2DE9F041AAB006000C00150034214B
:102B400000221DAF3800FFF7F9F8002074210022A1
:102B50006F463800FFF7F2F80E201E90300040B2AA
:102B6000FFF79DFE8DF87C00300040B2FFF717FEA6
:102B700007005FF00808300040B2FFF710FE1DAA02
:102B800097FBF8F108FB117739005F4FC0B2C01016
:102B9000802358433844FFF7CEF9300040B2FFF7A6
:102BA00006FF00220121293040B2FFF7BDFD0922B6
:102BB00000210120FFF784FD00210120FFF7D1FD56
:102BC0005248B0FBF4F31B0C50482104B0FBF1F267
:102BD00001FB1200002800D05B1C022B03D2002056
:102BE0008DF801002FE0032B03D201208DF80100A6
:102BF00029E0052B03D202208DF8010023E0092BE8
:102C000003D203208DF801001DE0112B03D2042014
:102C10008DF8010017E0212B03D205208DF801006B
:102C200011E0412B03D206208DF801000BE0812B2F
:102C300003D207208DF8010005E04FF48872304977
:102C40000020FEF717FD04208DF8000001208DF80C
:102C5000100000208DF8110003208DF812000320D1
:102C60008DF8130000208DF80800284901229DF9F5
:102C700001008240B1FBF2F0B0FBF4F0401E059081
:102C80000598401C05FB00F542F21070B5FBF0F012
:102C9000089002208DF8400003208DF86800012084
:102CA0001B9001208DF82800300040B2FFF77FFE16
:102CB000144C6946C0B280225043204400F054F8BE
:102CC000300040B2FFF773FEC0B280214843204479
:102CD00000F046F9300040B2FFF769FEC0B2802133
:102CE00048432044FFF72CFC2AB0BDE8F0810000E7
:102CF0000010004000140040000C004000040040A0
:102D0000D4680810000038400000314000127A00FA
:102D100001000020114A1368002912D08A7812F0AD
:102D2000070262F302030A79002A01D0012200E0BF
:102D3000002262F3DF730A4AB1F9001042F8213031
:102D400000E005487047074B1A68002A03D01A684C
:102D500000B242F82010704701005600286C08109D
:102D600000A02040746402080122002800F0E780DF
:102D7000002900F0E480734A12680B7A63F39242F0
:102D80000B7B13F0030363F311420B7813F007037B
:102D900063F31A628B7863F39E7291F8283063F3C1
:102DA000000291F8343063F341020B7F63F3820237
:102DB0004B7F63F3C30291F9403063F38A2291F9A8
:102DC00040305B1063F3492291F8703063F30822BE
:102DD00091F8713013F0030363F30D3202600A7A45
:102DE000002A02D10022826007E00A7A012A02D179
:102DF0004A69826001E0012282600A6A02614A6ACD
:102E00004261CA6A82610A6BC2614A6902628A6966
:102E100042624D4A126891F8443003F0FF0363F3B5
:102E2000070291F84C3003F0FF0363F3174291F867
:102E30005C3003F0FF0363F31F6291F86C3003F022
:102E4000FF0363F30F224264404A126891F8643032
:102E500003F0FF0363F30F2291F8543003F0FF03F4
:102E600063F3070282643A4A126891F8413013F022
:102E7000030363F3010291F8603013F0030363F37B
:102E80008B2291F8483013F0030363F3051291F895
:102E9000503013F0030363F3092291F8583013F014
:102EA000030363F3871291F8683013F0030363F3AD
:102EB0008302C264274A126891F8723013F0070344
:102EC00063F3020291F8733013F0070363F3061201
:102ED000426591F9352082671F4A12680B7C13F016
:102EE000030363F30102CB7C13F0030363F3871244
:102EF0004B7C13F0030363F383028B7C13F0030317
:102F000063F305120265154A1268CB8863F31F420A
:102F10008B889BB21B0A9BB263F30F2291F900309E
:102F2000052B05D1097901F0FF0161F3070204E0E7
:102F3000497801F0FF0161F30702026300221000EB
:102F400070470000406C0810446C0810486C081072
:102F50004C6C0810506C0810546C0810586C081019
:102F6000016851F0004101607047000070B5040035
:102F70000D00DFF83C682A0092B2120AD2B221009A
:102F8000C9B2300000F0A0FE2A00D2B2F021300019
:102F900000F09AFE70BD2DE9F04704000D000126F7
:102FA00000275FF000085FF00A09484640B2002899
:102FB00036D0484640B2052190FBF1F201FB1200E9
:102FC000002810D1DFF8E8A72A0092B2120AD2B284
:102FD0002100C9B2504600F077FE2A00D2B2F0219B
:102FE000504600F071FEDFF8C8A72100C9B2504674
:102FF00000F090FE0700F021504600F08BFE804666
:10300000280080B23900C9B24246D2B252EA012247
:10301000904202D10020060002E0B9F10109C4E7A4
:10302000300040B2BDE8F08770B50400DFF880677B
:103030002100C9B2300000F06DFE0500F021300023
:1030400000F068FEEDB2C0B250EA052080B270BD5B
:10305000F8B50400002500260127DFF854075C219D
:103060000172E168C160216801606168416000200F
:10307000FFF7DAFF0600300080B241F224318842C7
:103080000BD0300080B241F21131884205D03000BF
:1030900041F2133180B2884202D10020070004E0DF
:1030A0006D1C2800C0B21528E1DB3800C0B2F2BDAB
:1030B0002DE9F14F8AB05FF0000A00240020ADF83E
:1030C000200000250020ADF806000020ADF81E000D
:1030D0000020ADF81C0000265FF0000800270A98C9
:1030E000C088ADF808000A984089ADF80A000A982F
:1030F000C089ADF80C000A98408AADF80E000A9815
:10310000C08AADF810000A98408BADF812000A98FA
:10311000C08BADF814000A98408CADF816000A98E0
:10312000C08CADF81A004BF6EF61FE20FFF71EFFD2
:1031300003210C20FFF71AFF0020FFF775FF07009F
:1031400041F22439380080B248450BD0380080B2B3
:1031500041F21131884205D0380041F2133180B27A
:10316000884200D109E018F101084046C0B2142895
:1031700002DB0120060000E0DEE73000C0B20028DC
:1031800040F01083BDF81000792808DABDF810006F
:1031900080B28000ADF806005AF0020A16E0BDF8D1
:1031A0001000F12808DABDF8100080B24000ADF838
:1031B00006005AF0010A09E0BDF8100040F2E111E2
:1031C000884203DABDF81000ADF80600BDF80E0025
:1031D000BD2807DABDF80E0080B2800005005AF065
:1031E000080A16E0BDF80E0040F27911884207DAAD
:1031F000BDF80E0080B2400005005AF0040A08E055
:10320000BDF80E0040F2F121884202DABDF80E004E
:103210000500DFF8A0B540F24E31280080B2091A4F
:10322000CBF800103800494680B288427AD148F283
:1032300088310720FFF7AFFE80190600DFF8781508
:10324000BDF81020921C2B009BB2DBF80000C318C5
:103250005A43121D91FBF2F00400200080B240F2AC
:10326000F511884202DB4FF4FA7004002000BDF82B
:103270000C1080B2884201D2ADF80C40DFF83C154A
:10328000DFF83405BDF80C2090FBF2F2121F2B0082
:103290009BB2DBF80000C31892FBF3F2BDF81000FC
:1032A000121A0A6047F621600A68824202DA0A6846
:1032B000022A0EDA0A68022A02DA0220086008E00E
:1032C0000A68824203DB47F62060086001E0086874
:1032D0000860DFF8E404BDF80C2090FBF2F2121F46
:1032E0000968BDF81000411892FBF1F1280080B286
:1032F000091ACBF80010DBF800003D2803DA3D2066
:10330000CBF8000081E0DBF80000B0F5806F04DB53
:1033100040F2FF30CBF8000077E0DBF80000CBF89C
:10332000000072E0DFF89014BDF81020121D2B0091
:103330009BB2DBF80000C3185A43121D91FBF2F058
:103340000400200080B240F2F511884202DB4FF405
:10335000FA7004002000BDF80C1080B2884201D23F
:10336000ADF80C40DFF85414DFF84C04BDF80C2025
:1033700090FBF2F2121F2B009BB2DBF80000C31887
:1033800092FBF3F2BDF81000121A0A6040F6B93051
:103390000A68824202DA0A68042A0EDA0A68042AF3
:1033A00002DA0420086008E00A68824203DB40F683
:1033B000B830086001E008680860DFF8FC03BDF879
:1033C0000C2090FBF2F2121F0968BDF810004118A2
:1033D00092FBF1F1280080B2091ACBF80010DBF85B
:1033E00000002B2803DA2B20CBF800000DE0DBF8DF
:1033F0000000B0F5806F04DB40F2FF30CBF8000036
:1034000003E0DBF80000CBF80000DFF8B003016850
:10341000BDF810004118891EBDF80A00814208DA83
:10342000DFF898030168BDF810004118881EADF858
:103430000A00280080B2D0F53C70022190FBF1F028
:10344000BDF91210020012B2D14203DA010009B232
:10345000494209E00100BDF9122009B2914201DAA6
:10346000010001E0BDF91210ADF81210401CBDF9C9
:103470001210411AADF81E10BDF80610D1F5F0710A
:10348000022291FBF2F1BDF914200B001BB2DA42CB
:1034900003DA080000B2404209E00800BDF9142038
:1034A00000B2904201DA080001E0BDF91400ADF865
:1034B0001400091DADF82010BDF92010BDF914004D
:1034C0004118ADF81C1001211B20FFF764FD801985
:1034D0008DF804009DF804000090BDF81E10012036
:1034E000FFF759FD009940188DF804009DF804007D
:1034F0000090BDF81C100220FFF74DFD0099401808
:103500008DF804009DF804000090BDF8061003201B
:10351000FFF741FD009940188DF804009DF8040064
:103520000090290089B20420FFF735FD009940186A
:103530008DF804009DF804000090DBF80000010005
:1035400089B20520FFF727FD009940188DF8040087
:103550009DF804B099480068010089B20620FFF781
:103560001AFD10EB0B0B8DF804B09DF804B04FF46E
:10357000B2710A20FFF70FFD10EB0B0B8DF804B0B2
:103580009DF804B040F2BB110820FFF704FD10EBDA
:103590000B0B8DF804B09DF804B040F2D91109204E
:1035A000FFF7F9FC10EB0B0BBDF80800002807D162
:1035B000BDF80A100B20FFF7EEFC10EB0B00834662
:1035C0005AF44C7189B20D20FFF7E5FC10EB0B00AB
:1035D0008DF804009DF8046027213120FFF7DBFC03
:1035E00086198DF804609DF804601A213220FFF7D7
:1035F000D2FC86198DF804609DF804600521332003
:10360000FFF7C9FC8619BDF816103520FFF7C3FC7B
:1036100080198DF80400380080B2484529D1504601
:1036200080B2042801DB012100E000219DF8046044
:10363000C9B2090189B27220FFF7ADFC86198DF875
:1036400004609DF8049040F201110F20FFF7A3FCE5
:1036500010EB090981214720FFF79DFC83461BEBF6
:10366000090BEC214820FFF796FC060016EB0B0631
:1036700015E09DF8049011210F20FFF78CFC10EB52
:10368000090981214720FFF786FC83461BEB090BC4
:10369000E7214820FFF77FFC060016EB0B064FF4EE
:1036A00062710720FFF777FC80198DF804009DF800
:1036B00004B040F203311C20FFF76DFC10EB0B0B44
:1036C00003212C20FFF767FC814619EB0B09BDF89D
:1036D0000800002807D10021AF20FFF75CFC06009E
:1036E00016EB09064DE0BDF80810A520FFF753FCC6
:1036F000060016EB09060221A620FFF74CFC8346C4
:103700001BEB060B0221A820FFF745FC10EB0B007A
:103710008DF80400BDF80E10BDF8100041430420E0
:1037200091FBF0F0B0F5803F08DABDF80E10BDF85F
:1037300010004143042091FBF0F101E04FF6FF71CE
:103740009DF8046089B2B020FFF725FC86198DF83A
:1037500004609DF804901421AE20FFF71CFC10EBD0
:10376000090940F20111AF20FFF715FC83461BEB5E
:10377000090BBDF80A10AD20FFF70DFC060016EB93
:103780000B06BDF808000E490860BDF80A000D4997
:103790000860BDF810000C4908604DF6AD61FE20D0
:1037A000FFF7E4FB3000C0B20BB0BDE8F08F0000C3
:1037B000907F0408EC7F0408C0FC9B01E87F0408AC
:1037C000F07F0408F47F0408F87F04081CB50400A7
:1037D000002C01D0012000E000204122DFF8DC14A1
:1037E000C0B2FDF747FFDFF8D80401212278D210DC
:1037F000802303FB0202237813F0070311FA03F37B
:1038000013602379DB10802202FB0300227912F07F
:10381000070211FA02F20260E06800900098421E6E
:1038200000920028FAD1DFF89C242079C010802370
:1038300003FB0020237913F0070311FA03F303605D
:10384000E06800900098431E00930028FAD1237886
:10385000DB10802000FB0322207810F0070081405D
:103860001160E06800900098411E00910028FAD194
:1038700013BD1CB50400002C01D0012000E0002085
:103880005522DFF83814C0B2FDF7F4FEDFF8340437
:1038900001212279D210802303FB0202237913F045
:1038A000070311FA03F313602378DB10802202FB75
:1038B0000300227812F0070211FA02F20260E068B7
:1038C00000900098421E00920028FAD1DFF8F02301
:1038D0002078C010802303FB0020237813F0070317
:1038E00011FA03F30360E06800900098431E009310
:1038F0000028FAD12379DB10802000FB03222079F5
:1039000010F0070081401160E06800900098411EAF
:1039100000910028FAD113BD38B504000D00002C29
:1039200001D0012000E000206A22DFF89013C0B22D
:10393000FDF7A0FEDFF88C2301212078C010802342
:1039400003FB0020237813F0070311FA03F303604D
:10395000EDB2002D0DD02379DB108025DFF8600358
:1039600005FB0303207910F0070011FA00F018603E
:103970000AE02079C010802303FB0020237913F094
:10398000070311FA03F30360E06800900098431EF8
:1039900000930028FAD1DFF828332078C010802562
:1039A00005FB0030257815F0070511FA05F50560CF
:1039B000E06800900098451E00950028FAD125780F
:1039C000ED10802000FB0522207810F0070011FA8E
:1039D00000F010602079C010802202FB00332079B3
:1039E00010F007008140196031BD2DE9FC41040051
:1039F000002C01D0012000E000208622DFF8BC125C
:103A0000C0B2FDF737FE0025DFF8B8720126207836
:103A1000C010802101FB0070217811F0070116FA17
:103A200001F10160DFF898822079C010802101FB4C
:103A30000080217911F0070116FA01F101600022DE
:103A400000216068C0B2FDF7CEFEE06800900098EB
:103A5000411E00910028FAD12078C010802101FB7E
:103A60000088207810F0070016FA00F0C8F800006F
:103A7000E06800900098411E00910028FAD160682B
:103A8000C0B2FDF79EFE002800D001252178C910A4
:103A9000802000FB0177207810F0070086403E6010
:103AA000032201216068C0B2FDF79DFEE06800902E
:103AB0000098411E00910028FAD12800C0B2BDE84C
:103AC000F681F8B504000D00002C01D0012000E0C3
:103AD0000020A822DFF8E411C0B2FDF7CBFD802161
:103AE0000800C0B2002852D02800C0B208420DD051
:103AF0000122207910F0070082402679F6108023F9
:103B0000DFF8BC0103FB060632600CE001222079DD
:103B100010F0070082402679F6108023DFF8A40118
:103B200003FB06063260C9B24908E068400800900D
:103B30000098421E00920028FAD10122237813F047
:103B4000070312FA03F32678F6108027DFF87001D6
:103B500007FB06063360E06800900098431E009360
:103B60000028FAD1207810F0070082402378DB107B
:103B70008026DFF8500106FB03031A60E068400866
:103B800000900098421E00920028FAD1A8E7200079
:103B9000FFF72BFF012801D1002000E00120C0B277
:103BA000F2BD2DE9FC4704008A46002C01D001201B
:103BB00000E00020C222DFF80411C0B2FDF75AFD78
:103BC00000250826DFF8FC705FF001082078C0109F
:103BD000802101FB0070217811F0070118FA01F132
:103BE0000160E06800900098411E00910028FAD121
:103BF000DFF8CC902079C010802101FB0090217962
:103C000011F0070118FA01F101600022002160683B
:103C1000C0B2FDF7E8FD29E02078C010802101FB4B
:103C20000070217811F0070118FA01F10160E068D5
:103C300000900098411E00910028FAD12078C01011
:103C4000802101FB0090217811F0070118FA01F1A1
:103C50000160E06800900098411E00910028FAD1B0
:103C60006068C0B2FDF7ADFD50EA45053000461E64
:103C7000C0B20028D0D12178C910802000FB017784
:103C8000207810F0070018FA00F8C7F80080032227
:103C900001216068C0B2FDF7A6FDE06800900098C1
:103CA000411E00910028FAD15146C9B22000FFF709
:103CB00033FE2800C0B2BDE8F6870000486808104F
:103CC000080031400400314070B504000E001500BA
:103CD000002C01D0012000E0002040F28D22464956
:103CE000C0B2FDF7C7FC2000FFF770FD217A490044
:103CF000C9B22000FFF7E5FE3100C9B22000FFF78E
:103D0000E0FE2900C9B22000FFF7DBFE2000FFF72C
:103D1000B0FD70BD38B504000D00002C01D00120AD
:103D200000E0002040F29F223349C0B2FDF7A2FC20
:103D300000202000FFF74AFD217A4900C9B2200087
:103D4000FFF7BFFE2900C9B22000FFF7BAFE20002E
:103D5000FFF78FFD2000FFF739FD217A490051F070
:103D60000101C9B22000FFF7ACFE01212000FFF7DE
:103D700018FF05002000FFF77CFD2800C0B232BD0F
:103D80002DE9F843040088461700002C01D00120DB
:103D900000E00020089D1E00DFF85C9040F2BA228F
:103DA0004946C0B2FDF766FC31002800C9B2C0B276
:103DB000814201D0012000E0002040F2BB224946B0
:103DC000C0B2FDF757FC3000C0B220602800C0B27E
:103DD000606084F80880E76003230122012130003D
:103DE000C0B2FDF728FD0323012201212800C0B243
:103DF000FDF721FDBDE8F18348680810002800D5D3
:103E000040427047F0B4002100210021002200232D
:103E10001DE0BC27DFF874660D00EDB27D4335442C
:103E20001600F6B29C465FFA8CFC07FB0CF700EB21
:103E3000070C2700FFB21CF80770AF55521C641C1A
:103E40002500EDB2BC2DE4DB0022491C5B1C1C00EC
:103E5000E4B2782C01DA0024F2E7F0BC70470000ED
:103E60002DE9F84F2DED0A8BADF5826D0C009046D3
:103E700081464FF48061002204AD2800FDF75EFF0B
:103E80000027002500260020002000209FEDB01B09
:103E90009FEDAF1B9FEDAE1B9FEDAD0B9FEDAC0BF0
:103EA0009FEDAB1B002000205FF0000B00201FE007
:103EB00004AA84461FFA8CFC23009BB203FB0C1C53
:103EC00019F80C3084461FFA8CFCA6461FFA8EFEA9
:103ED0000EFB0C1C19F80CC052F82CC01CF1010C84
:103EE00042F823C0491C220092B29142E0DB401C00
:103EF0000200414692B289B28A4201D20021F2E721
:103F0000002000E0401C0DF1100A0100C9B25AF86F
:103F100021100029F6D0FF2400E0641E01002200D9
:103F2000C9B2D2B2914205D20100C9B25AF82110E9
:103F30000029F2D022000100D2B2C9B28A4202D1D5
:103F40002000C0B2BDE00100C9B2491C2200D2B2BB
:103F5000914201D1C0B2B4E00200D2B205E011003A
:103F600089B25AF82110CF19521C2300DBB211007C
:103F70009BB289B28B42F2D25FF000080200D2B24B
:103F800008E0110089B25AF82130110089B201FB12
:103F90000388521C2300DBB211009BB289B28B4212
:103FA000EFD29FED6D9B81465FFA89F97FE048462D
:103FB00080B25AF820004519781B0290280000F0C2
:103FC00089FACDE90001380000F084FA02000B0004
:103FD000DDE9000100F08CFA41EC180B029800F0CA
:103FE000ABFBCDE90001380000F074FA02000B00D1
:103FF000DDE9000100F07CFA41EC1C0B484680B280
:104000005AF82010484680B200FB0166B8EB060063
:104010000390300000F05EFACDE90001280000F0C6
:1040200059FA02000B00DDE9000100F061FA41ECF1
:104030001A0B039800F080FBCDE90001029800F014
:104040007BFB02000B00DDE9000100F051FA41ECBE
:104050001B0B51EC180B53EC1C2B00F07FFBCDE934
:10406000000151EC1A0B53EC1B2B00F00BFDDDE9AA
:10407000002300F073FBCDE9000151EC1A0B53EC67
:104080001B2B00F0FFFCDDE9002300F067FB41EC97
:10409000180B51EC190B53EC182B00F065FD04D2F2
:1040A000B0EE489AF0EE689ACB4619F101094946FC
:1040B0002000C0B289B280B28142FFF478AF584686
:1040C000C0B20DF5826DBDEC0A8BBDE8F28F70B504
:1040D000DFF8BC43DFF8B4537822BC212800FFF797
:1040E000BFFE2070002100E0491C0800C0B2782803
:1040F0002DDA00220DE0DFF89C630B00DBB24FF4F9
:104100003C7043431E441000C0B2002346F82030E8
:104110001BE01000C0B2BC28E6DA23780E00F6B22D
:10412000BC2046432E441000C0B2305C8342E2D231
:10413000DFF860630B00DBB24FF43C7043431E4476
:104140001000C0B2FF2346F82030521CE1E770BDDA
:104150000000000000000000000000000000F0BFB0
:104160002DE9F0475E21CC480160DFF83093002054
:10417000C9F80000742421E056F82400022806D172
:10418000D9F80000002802D10120C9F8000056F833
:104190002400012806D1D9F80000012802D102200C
:1041A000C9F8000056F82400022806D1D9F800000A
:1041B000022802D10320C9F80000A41E1F2CC0F25F
:1041C000CF80B74D00202860B64E002046F824006E
:1041D0000020B54908603C275FF080080CE053F8E8
:1041E0002410B24850F824004118022091FBF0F14D
:1041F000AF4840F8241070E04745BDDA2868002831
:104200001FD14FF43C71A34A01FB04F0104450F855
:104210002700002815D101FB04F102EB010000EB9F
:1042200087004068FF280CD1A24840F82470012084
:104230002860A1490868002803D16E2C01DA01200A
:1042400008604FF43C70934900FB04F20A4452F8B2
:104250002820FF2A1AD100FB04F0084400EB880054
:104260004068002812D1914840F8248050F824007A
:10427000904951F82410401AFFF7C0FD8F4941F8CA
:10428000240056F82400401C46F82400894B53F8BB
:10429000240000280AD1854951F82400002805D1BE
:1042A000012043F82400BB2041F8240056F82400E4
:1042B000002808D053F82400002890D17B4850F8FB
:1042C000240000288BD153F82410784850F824009B
:1042D00041184910764840F824105FF0A00A4FF4C6
:1042E0007842802101FB04F1782091FBF0F001007D
:1042F00089B253F824300AFB03F3BC2093FBF0F09F
:1043000080B2FCF711F84FF47842802000FB04F0F3
:10431000782190FBF1F0010089B2644850F8243014
:104320000AFB03F3BC2093FBF0F080B2FBF7FCFF29
:104330001F22802101FB04F1782091FBF0F00100A5
:1043400089B25B4850F824000AFB00FABC209AFBB3
:10435000F0F080B2FBF7E8FF7F1CB8F101084BE7F3
:10436000BDE8F08770B52DED028B5148D0F8F00014
:10437000B0F15E045248FFF745FDFFF7A8FEFBF7DA
:1043800075FFFFF7EDFE4F4E200000B200EE100A61
:10439000F8EEC00A96ED000A30EE800A86ED000ABB
:1043A0004948210009B200EE101AF8EEC00A90ED5B
:1043B000000A30EEC08A210009B200EE101AB8EEF1
:1043C000C00A80ED000A142014FB00F000F0B4F9DC
:1043D00004000D00306800F0E1FB3C4A3C4B00F06B
:1043E000BDF922002B0000F08FFA04000D009FEDB4
:1043F000250A28EE000A10EE100A00F0CFFB22007A
:104400002B0000F081FA00F0EDFB08EE100ADFED62
:104410001E8A002138EE280ABDEEC00A10EE100AEE
:1044200000B200F013FC002138EEC80ABDEEC00A4D
:1044300010EE100A00B200F015FC1E48D0F8F00093
:1044400001280DD140F28A20FDF7C5FA0021002095
:1044500000F0FCFB00214FF4C86000F003FC0DE00D
:104460001248D0F8F000BA2808D100214FF4C860F3
:1044700000F0ECFB0021002000F0F4FBBDEC028B0F
:1044800070BD0000000000000000C8443CC50308E7
:10449000FC7F0408BC640208AC7F0408A87F040801
:1044A000A47F0408FC7C0408B07F04083C7904085D
:1044B0001C7B04085C770408A07F04087C75040852
:1044C0005C1D0408B47F0408B87F04087B14AE4761
:1044D000E17A943F50B1B0FA80F18840C91CC1F52F
:1044E0008461090501EBD021400570470146704702
:1044F000F0B540F2FF7581EA030C0CF0004C15EAB0
:1045000011541DBF15EA1357AC42AF42E5E0BC4160
:10451000C1F31301C3F31303801A994143F48013C9
:1045200004D2641E0018494180185941C90241EA69
:104530005051B1FBF3F603FB1611A2FB0675D7EB46
:10454000C020A94102D2761E80185941C90241EA11
:104550005051B1FBF3FE03FB1E11A2FB0E75D7EB0E
:10456000C020A94103D2AEF1010E80185941890241
:1045700041EA9051760546EA8E2EB1FBF3F603FB35
:104580001611A2FB0675D7EB8020A94102D2761E38
:1045900080185941C90241EA50514EEA060EB1FB5A
:1045A000F3F603FB1611A2FB0675D7EBC020A94159
:1045B00002D2761E80185941C90241EA5051B1FB1E
:1045C000F3F703FB1711A2FB0735D3EBC020A9417A
:1045D00067F100070CBF004247F0010766F3D527DB
:1045E0004FEA1E31B80814F5806412DDBD0775F17D
:1045F000004250EB0E5051EB045111F5801F5CBF8F
:1046000041EA0C01F0BD4CF07F6141F0E041002037
:10461000F0BDBD076D0840EA0E5041F48011D4F1A1
:104620000104B4F120060ADAC4F120060200E040D9
:1046300001FA06F3E1401843B24015430EE0342C72
:1046400013DCC6F1200445EA40056D0820FA06F2A5
:10465000154321FA06F0A1400D43002175F10042F7
:1046600050F1000051EB0C01F0BD00205FEA0C019D
:10467000F0BDCFB992185B41B3FA83F704BFB2FA29
:1046800082F6BF190B3FB7F120062FBF02FA06F3DF
:10469000BB40C7F1200622FA06F638BF3343BA40C2
:1046A0001CB1E419641E33E77F4231F00041B1FAD6
:1046B00081F404BFB0FA80F6A4190B3CB4F12006D3
:1046C0002FBF00FA06F1A140C4F1200620FA06F639
:1046D00038BF3143A0403C1B1AE7AC421ABF05EA81
:1046E0001357AF4212E050EA41061CBF52EA43069C
:1046F000BFE750EA4107304661461CBF41EA055119
:10470000F0BD52EA430C08BFC143F0BD00204FF496
:10471000001616EB410F98BF16EB430F08BF16EBC0
:10472000410F24BFC14305E016EB430F0CBF6146A8
:104730004CEA0551F0BD000010F0004160B148BFE7
:104740004042B0FA80F29040D21CC2F5846241EA45
:10475000025202EBD02140057047000030B540F214
:10476000FF7C1CEA11541DBF1CEA135564456545C6
:104770003FE0641981EA030C6FF35F530CF0004CC7
:1047800043F48013C90241F0004141EA505EC50282
:104790001100A5FB020200284FF00000EEFB0120F3
:1047A0004FF00001E3FB052118BF42F00102401861
:1047B00000214941E3FB0E01A4F580640D0302D200
:1047C00092184041494154F1010470DD450872F1ED
:1047D000004250F1000051EB0451A1F5801102D4C8
:1047E00041EA0C0130BD40F2FF7E4CEA0E51002040
:1047F00030BD0CEA1355644518BF654581EA030CCA
:104800000CF0004C41D050EA410E1CBF52EA430E5E
:1048100002E06146002030BD24422C441BD15FEAF7
:10482000050EF6D0090302BF01460020AEF1140EBA
:10483000B1FA81F5AEEB050401FA05FE0C35C5F1C0
:10484000200100FA05F5C8404EEA000E6FF35F53F1
:1048500043F480139CE733F00043B3FA83F504BFBD
:10486000B2FA82FE75440B3D641BB5F1200E2FBFDA
:1048700002FA0EF3AB40C5F1200E22FA0EFE38BF4D
:1048800043EA0E03AA40641C7CE750EA410E14BFC1
:1048900052EA430E6FF000014FF4001515EB430F81
:1048A0008EBF194615EB410F9DE7B4D830BDD4F14A
:1048B0000104B4F120050FDAC4F12005520828BF25
:1048C00042F0010210FA05FE01FA05F57244E2BF5A
:1048D000E0402843E1400FE0352C9ADCC5F120048C
:1048E00052EA400220FA05F218BF42F0010231FA02
:1048F00005F0A1400A43002172F1004250F100008E
:1049000051EB0C0130BD000070B491EA030F4FF081
:10491000004540F1BF806B40841A71EB030604D25E
:104920006E40001BB141121973414FF4001C1CEB87
:10493000410F34BF7CEB430683E00C0DA4EB135610
:10494000362E00F37C80012E45EAC32341DC43EA86
:10495000525312BFD20292025B08240545EAC121DC
:1049600041EA5051D2EBC020994125D407D1B0FA89
:1049700080F610FA06F162D00020203608E0B1FA85
:1049800081F6B140C6F1200220FA02F21143B04094
:104990004FEAF474B4EB465434F001064FEA740461
:1049A0000AD8D6F50016760D04F00044F04061FAFE
:1049B00006F25040F1404840C00A40EA415021F020
:1049C000004128BF5FEA500550F1000044EBD121BF
:1049D00035E0DB0A45EAC121C90AB6F120050EDD42
:1049E00042EA0242120CC5F1200603FA06F6EB4039
:1049F00042EA06056D42984161F100010DE062FA5C
:104A000006F5F240554063FA06FC82EA0C02F340D8
:104A10005A406D42904161EB030111F4801F05D1B2
:104A2000641E620502D06D004041494121F48011AD
:104A3000430875F1004350F1000041EB045170BC94
:104A400070471CEB410F15D223F0004352EA430696
:104A50000BD04FEA4C0CBCEB410F04D80C0D661E7A
:104A6000342EB7DDEBE7801A994150EA410608BFC2
:104A70000021E4E708BF1CEB430F28BF6FF00001E3
:104A8000DDE7000070B491EA030F4FF000457FF5B9
:104A900043AF6B40841A71EB030603D2001BB14194
:104AA000121973414FF4001C1CEB410F34BF7CEB17
:104AB000430442E00C0DA4EB1356352E4FDC45EABF
:104AC000C323DB0A45EAC121C912B6F120050DDD79
:104AD00063FA05F6EB4086EA0305124218BF45F07B
:104AE0000105C01851F100010CD213E062FA06F57D
:104AF000F2405540F3415A40B340F3405A408018C9
:104B0000594107D349085FEA30005FEA350528BFFD
:104B100045F0010501F58011420875F1004250F1A0
:104B2000000041EB04514E0016F5001F70BC38BF69
:104B300070470020090D090570471CEB410F10D28A
:104B400052EA43060BD0BCEB410F05D80C0DAB432A
:104B5000661E342EB6DD02E0AB438018594170BCAE
:104B6000704770BC7047000041EA030C50EA4C0CDF
:104B700052EA0C0C4FF4001C09D307D01CEB410F78
:104B80009CBF1CEB430F8B4208BF824270471CEB5B
:104B9000430FFBD8994208BF90427047C0F3C751FA
:104BA00081B1FF2906D0C110400721F0E04101F199
:104BB0006051704741020CBF40F4E0016FF00041CA
:104BC0000020704700F0004100020AD0B0FA80FCDB
:104BD00000FA0CF001F16051A1EB0C5101EBD02176
:104BE0004005704701F000428B1AA3F16051B1F506
:104BF000801F0ADBB1F17F6F1FD242EAC102C10000
:104C000071F1004142EB507070470B15C3F109037D
:104C1000212B10D2890241EA90518002012849419A
:104C200041F0004121FA03F0C3F12003994071F1F2
:104C3000004150417047100070476FF0000013EBC7
:104C4000103F5CBF000E42EAC050704710B5040030
:104C500001210220FCF791FD24B221000920FDF77B
:104C600036FF10BD10B5040001219620FCF785FD2C
:104C700024B221001C20FDF72AFF10BDDFF8E81147
:104C80000868C0F34000002801D0022002E0086854
:104C900010F001007047DFF8D401006810F0010047
:104CA00070470000002801D0022801D3012002E053
:104CB000401E0860002070471CB5FF246946FFF7BE
:104CC000F1FF40B2002802D02000C0B207E0DFF8B8
:104CD000A011009851F8200010F00100C0B216BDDC
:104CE000DFF8E4010068800810F001007047000060
:104CF00038B50400200040B2032811D3DFF8C051BA
:104D00001822DFF87011280000F0F4FA0020E8758E
:104D100040F64901DFF8AC010160002000F022FB01
:104D2000DFF8A811200040B251F82000C0F30020A5
:104D3000002805D064B251F8240010F00F0000E004
:104D4000FF2032BD38B50400200040B2032811D343
:104D5000DFF86C511822DFF81C11280000F0CAFAA5
:104D60000020E87540F67E01DFF858010160002060
:104D700000F0F8FADFF8540164B250F82400C0F3F0
:104D8000011040B232BDDFF848010068C0F30720CF
:104D9000704738B50400042C11D3DFF824511822D1
:104DA000DFF83811280000F0A5FA0020E87540F27D
:104DB0009511DFF810010160002000F0D3FADFF850
:104DC000180150F8240010F00700010009B204296E
:104DD00007D1DFF8000150F8240010F01F0050F454
:104DE000807000B232BDDFF83C120A689103890B73
:104DF0000160120E12F00102C271DFF82012096880
:104E00000A00D204D20C82800A00120C02F0FF02C7
:104E10000281090C01F0FF014181DFF8C41009682B
:104E200011F00F0202730A00C2F3031242730A0068
:104E3000120AD204D20CC281090F11F003010174CD
:104E4000DFF8DC1109680A00120A12F00702827109
:104E50000A00120CD205D20D4282890F11F0010115
:104E600001757047000000002415264040152640BB
:104E700040162640586708101CB50C006946FFF71D
:104E800011FF010049B2002901D040B217E0DFF85C
:104E90005813009851F8200010F07F012160C0F3F2
:104EA00004216160C0F30441A1600100090F11F009
:104EB00003016173C00E10F001002073002016BDC5
:104EC000647F0408BC7F040810002740401226407D
:104ED000080020400001264000122640AC67081060
:104EE0003815264080B50100DFF8E403182200F0F1
:104EF0009DFA0121DFF8DC030170002002BDDFF81C
:104F0000D8130968C90F002908D0DFF8C813097839
:104F1000002907D1002101600320704700210160B2
:104F20000320FAE7DFF8A813096801600020F4E71E
:104F300010B50400FFF7A2FE002803D10020206076
:104F400003200DE0DFF88C030078002805D0DFF89F
:104F5000800380682060002002E0002020600320A1
:104F600010BD0000DFF86C130978002905D0DFF8C8
:104F7000601349680160002002E000210160032005
:104F800070470000DFF854130968C90F002908D0E2
:104F9000DFF840130978002907D1002101600320C0
:104FA0007047002101600320FAE7DFF82413C96885
:104FB00001600020F4E7DFF828130968C90F002911
:104FC00008D0DFF810130978002907D1002101600B
:104FD00003207047002101600320FAE7DFF8F01298
:104FE000096901600020F4E710B50400FFF778FEBE
:104FF000002803D10020206003200DE0DFF8D40258
:105000000078002805D0DFF8C80240692060002041
:1050100002E000202060032010BD0000341526406F
:105020003C1526403015264010B50C00C0B2FFF7E5
:10503000B0FE00280ED0012810D0022812D0B0F502
:10504000887F13D040F21111884213D0B0F58A7FC7
:1050500014D017E02000FFF752FF16E02000FFF702
:1050600081FF12E02000FFF763FF0EE02000FFF752
:1050700089FF0AE02000FFF7B7FF06E02000FFF7F6
:105080009AFF02E000202060032010BD80B50100DF
:105090000020FFF7C9FF02BD80B50022D2B28242D4
:1050A00003D200200860012003E0401CC0B2FFF7DB
:1050B000BBFF02BD18B587B004006846FFF7E6FFE6
:1050C000010049B2002903D00021216040B22BE049
:1050D00001A8FFF788FE9DF91400022803D100986B
:1050E0002060002020E0DFF8FC010068C00F0028ED
:1050F00008D0FFF7D0FDC0B2002807D10020206003
:10510000032011E00098206000200DE00099019834
:105110004143BDF80800B1FBF0F19DF80B00401CC5
:10512000B1FBF0F02060002008B010BD78B585B06C
:1051300005000C0069462800C0B2FFF7ADFF010072
:1051400049B2002903D00021216040B249E001A901
:105150002800C0B2401CFFF78FFE40B2002811D0DB
:10516000DFF884611822DFF88411300000F0C2F803
:105170000020F07540F65311DFF874010160002043
:1051800000F0F0F818492800C0B251F82000C00F14
:10519000002807D09DF91100022807D1009820604F
:1051A00000201EE00098206000201AE0EDB26D1C87
:1051B0002800FFF781FD0100C9B2002902D0C0B26A
:1051C000FF2803D10020206003200AE00099019805
:1051D00041430298B1FBF0F10398B1FBF0F020607D
:1051E000002006B070BD00000016264010B5002358
:1051F000421E0400E4B2002C03D10800FFF75AFF5E
:105200000CE01400DBB2E4B2A34204D31000C0B23D
:10521000FFF78CFF02E0C0B2FFF706FF10BD38B504
:1052200005000C00280040B2FFF762FD0100C9B282
:10523000FF2904D12000FFF762FE40B21BE069465F
:10524000C0B2FFF7D3FF010049B2002903D000210B
:10525000216040B20FE0280040B2FFF773FD40B27A
:10526000002805D002280BD006D303280CD00FE06D
:1052700000982060002032BD009840082060F9E7C7
:10528000009880082060F5E70098C0082060F1E7EA
:10529000002020600320EEE71CB5040069460020D2
:1052A000FFF7BDFF010049B2002903D000212160B2
:1052B00040B207E0FFF767FD0099401CB1FBF0F03A
:1052C0002060002016BD80B5FFF7E6FF02BD00009C
:1052D0004C7F0408FD7F0408181526400815264059
:1052E0000C15264030152640647F0408AC67081072
:1052F000BC7F040801B58B071AD1830724D1121F84
:1053000021D351F8043BA3F1013C2CEA030C1CF01F
:10531000803C04BF40F8043BF1E79CFA8CFCBCFAEB
:105320008CF1C1F118018B40CB4040F8043B13E0F5
:10533000042A09D311F8013B521E00F8013B5BB16E
:105340008B07F7D1D9E7121D5AB111F8013B521E54
:1053500000F8013B03B1F8D111001CBF0022FCF79B
:10536000F1FC01BD01BEFEE780B52349234A136865
:105370008B423ED0116022490968516221499162F5
:1053800001685160416891608168D160C1681161B4
:1053900001695161416991618169D161C16911629C
:1053A000F1EE101A11F0900F23D017499162016AA3
:1053B000D162416A1163816A5163C16A9163016B71
:1053C000D163416B1164816B5164C16B9164016C59
:1053D000D164416C1165816C5165C16C9165016D41
:1053E000D165416D1166816D5166C16D9166006E2A
:1053F000D06600F05EF801BDF7F6F5F4DC7E040837
:1054000028ED00E0A4A3A2A1ABAAA9A862B38B07D0
:1054100008D0521E11F8013B00F8013B00F0248037
:105420008B07F6D1830740F0208000BF103A07D3E6
:1054300030B4B1E83810103AA0E83810F9D230BCD6
:10544000530724BFB1E80810A0E8081044BF51F882
:10545000043B40F8043BD20724BF31F8022B20F86C
:10546000022B44BF0B7803707047121F17D35B00E9
:1054700009D151F8043B20F8023B1B0C121F20F805
:10548000023BF6D20BE051F8043B00F8013B1B0A4B
:1054900020F8023B1B0C121F00F8013BF3D238BF6F
:1054A000121D521E24BF11F8013B00F8013BF8D831
:1054B0007047FEE700000000000000000000000050
:1054C00000000000000000F80000000000000033B1
:1054D0003000000000100C06100C06000000000058
:1054E0000000000040C07840C0784000043F040441
:1054F0003F040400007088FC08300000001820FF02
:10550000211E0000F008F000E018000000211C033C
:105510001E211E0000F00888700000001E212324B8
:105520001927211010160E000000000000000000D6
:1055300000000000000000E0180402000000000766
:105540001820400000020418E0000000004020186D
:1055500007000000404080F0804040000202010F40
:1055600001020200000000F0000000000101011F24
:1055700001010100000000000000000080B0700088
:105580000000000000000000000000000001010118
:1055900001010101000000000000000000303000A7
:1055A0000000000000000000806018040060180681
:1055B0000100000000E010080810E000000F1020BB
:1055C00020100F00001010F8000000000020203F05
:1055D000202000000070080808887000003028248F
:1055E0002221300000300888884830000018202030
:1055F00020110E000000C02010F800000007042455
:10560000243F240000F80888880808000019212099
:1056100020110E0000E0108888180000000F1120F3
:1056200020110E0000380808C83808000000003FAC
:10563000000000000070880808887000001C22210B
:1056400021221C0000E010080810E00000003122B8
:1056500022110F00000000C0C00000000000003058
:1056600030000000000000800000000000008060AA
:10567000000000000000804020100800000102042B
:105680000810200040404040404040000404040412
:1056900004040400000810204080000000201008CE
:1056A00004020100007048080808F0000000003003
:1056B00036010000C030C828E810E0000718272491
:1056C00023140B000000C038E0000000203C23023F
:1056D0000227382008F8888888700000203F2020A2
:1056E00020110E00C03008080808380007182020D4
:1056F0002010080008F808080810E000203F2020CB
:1057000020100F0008F88888E8081000203F2020AB
:105710002320180008F88888E8081000203F20009F
:1057200003000000C03008080838000007182020D7
:10573000221E020008F808000008F808203F210196
:1057400001213F20000808F8080800000020203F41
:105750002020000000000808F8080800C0808080B1
:105760007F00000008F888C028180800203F2001AA
:105770002638200008F8080000000000203F202004
:105780002020300008F8F800F8F80800203F003F1B
:10579000003F200008F830C00008F808203F200033
:1057A00007183F00E01008080810E0000F10202044
:1057B00020100F0008F808080808F000203F210119
:1057C00001010000E01008080810E0000F18242470
:1057D00038504F0008F8888888887000203F2000E3
:1057E000030C302000708808080838000038202199
:1057F00021221C00180808F8080818000000203FA3
:105800002000000008F808000008F808001F202009
:1058100020201F000878880000C8380800000738DA
:105820000E010000F80800F80008F800033C07002B
:10583000073C0300081868808068180820302C0393
:10584000032C30200838C800C83808000000203F6A
:105850002000000010080808C83808002038262159
:1058600020201800000000FE020202000000007F5D
:1058700040404000000C30C000000000000000016B
:105880000638C00000020202FE0000000040404056
:105890007F0000000000040202020400000000007B
:1058A00000000000000000000000000080808080F8
:1058B00080808080000202040000000000000000E0
:1058C0000000000000008080808000000019242279
:1058D00022223F2008F8008080000000003F1120B5
:1058E00020110E000000008080800000000E1120BA
:1058F00020201100000000808088F800000E112098
:1059000020103F200000808080800000001F2222A5
:1059100022221300008080F0888888180020203F11
:10592000202000000000808080808000006B949424
:105930009493600008F8008080800000203F2100E0
:1059400000203F2000809898000000000020203FA9
:1059500020200000000000809898000000C0808097
:10596000807F000008F8000080808000203F240233
:105970002D302000000808F8000000000020203F23
:10598000202000008080808080808000203F2000D8
:105990003F20003F8080008080800000203F210069
:1059A00000203F200000808080800000001F202019
:1059B00020201F00808000808000000080FFA12048
:1059C00020110E000000008080808000000E112059
:1059D00020A0FF80808080008080800020203F21E8
:1059E000200001000000808080808000003324249B
:1059F00024241900008080E0808000000000001F47
:105A0000202000008080000000808000001F2020F7
:105A100020103F20808080000080808000010E30B8
:105A20000806010080800080008080800F300C0319
:105A30000C300F0000808000808080000020312E1C
:105A40000E312000808080000080808080818E70F8
:105A50001806010000808080808080000021302CAA
:105A60002221300000000000807C020200000000C3
:105A7000003F404000000000FF0000000000000068
:105A8000FF0000000002027C800000000040403F58
:105A900000000000000601010202040400000000F2
:105AA0000000000040B2002804D0012808D00328DC
:105AB0000BD00FE0202901D3012000E00020704727
:105AC000102901D30120FAE7F8E7082901D30120C2
:105AD000F5E7F3E70120F2E770B504000D0056008A
